:100000000C9446000C9465000C9465000C946500FB
:100010000C9465000C9465000C9465000C946500CC
:100020000C9465000C9465000C9465000C946500BC
:100030000C9465000C94D9010C9465000C94650037
:100040000C9465000C9465000C9465000C9465009C
:100050000C9465000C9465000C9465000C9465008C
:100060000C9465000C9465000C9465000C9465007C
:100070000C9465000C9465000C9465000C9465006C
:100080000C9465000C9465000C94650011241FBE4F
:10009000CFEFD0E4DEBFCDBF11E0A0E0B1E0E0E8FB
:1000A000FBE000E00BBF02C007900D92AE34B10739
:1000B000D9F721E0AEE4B1E001C01D92AE35B20740
:1000C000E1F70E94FC030C94BE050C940000CF9352
:1000D000DF93CDB7DEB781E00E948E000000DF9194
:1000E000CF910895CF93DF93CDB7DEB784E690E04C
:1000F0000E94320188E30E948E0086E00E948E00FA
:100100008FE00E948E0081E00E948E008AE090E0E5
:100110000E9432010000DF91CF910895CF93DF93C9
:100120001F92CDB7DEB789838BE290E02BE230E0FF
:10013000F90120812F7BFC01208388E290E0298156
:10014000FC0120838BE290E02BE230E0F90120817A
:100150002068FC01208300008BE290E02BE230E07D
:10016000F90120812F77FC01208382E090E00E943A
:10017000320100000F90DF91CF910895CF93DF936C
:100180001F92CDB7DEB789838BE290E02BE230E09F
:10019000F90120812064FC01208388E290E029811C
:1001A000FC0120838BE290E02BE230E0F90120811A
:1001B0002068FC01208300008BE290E02BE230E01D
:1001C000F90120812F77FC01208381E090E00E94DB
:1001D000320100000F90DF91CF910895CF93DF930C
:1001E00000D000D0CDB7DEB78A837C836B830E94BA
:1001F00067008A81898311C0898191E0980F998372
:100200000E941B018B819C819C012F5F3F4F3C838F
:100210002B83FC0180810E94BE008B819C81FC01AC
:100220008081882349F700000F900F900F900F9066
:10023000DF91CF910895CF93DF931F92CDB7DEB7B3
:1002400089838981813128F4898181580E948E00B7
:1002500004C0898181550E948E0000000F90DF91BB
:10026000CF910895CF93DF9300D000D000D0CDB7C9
:10027000DEB79E838D831A82198213C01C821B8273
:1002800006C000008B819C8101969C838B838B81AF
:100290009C8187309340ACF389819A8101969A833F
:1002A000898329813A818D819E812817390734F30A
:1002B000000026960FB6F894DEBF0FBECDBFDF91CB
:1002C000CF910895CF93DF9300D01F92CDB7DEB7C3
:1002D00089837B836A8389818A3031F48A819B8117
:1002E000BC018DE00E94620180EC90E0FC01808105
:1002F000882F90E080729927892BB1F386EC90E0EB
:100300002981FC01208380E090E00F900F900F90F6
:10031000DF91CF910895CF93DF93CDB7DEB781E81A
:1003200090E02BE0FC01208388E890E02DE730E0AE
:10033000FC01318320838FE690E022E0FC012083E2
:1003400084E890E0FC011182108280914A01909132
:100350004B01A0914C01B0914D01809354019093B9
:100360005501A0935601B09357018FE590E02FE51A
:1003700030E0F90120812068FC0120830000DF913A
:10038000CF910895CF93DF93CDB7DEB781E890E0AA
:10039000FC0110820000DF91CF910895CF93DF938D
:1003A000CDB7DEB781E0809351010000DF91CF919E
:1003B00008951F920F9200905F000F9211240090F9
:1003C0005B000F922F933F934F935F936F937F93B5
:1003D0008F939F93AF93BF93EF93FF93CF93DF934D
:1003E000CDB7DEB78091540190915501A09156018F
:1003F000B09157010197A109B109809354019093DD
:100400005501A0935601B0935701809154019091EA
:100410005501A0915601B0915701892B8A2B8B2B46
:1004200091F40E94CE0180914A0190914B01A091DC
:100430004C01B0914D018093540190935501A093CC
:100440005601B09357010000DF91CF91FF91EF91DA
:10045000BF91AF919F918F917F916F915F914F91DC
:100460003F912F910F9000925B000F9000925F00E0
:100470000F901F901895CF93DF9300D000D0CDB789
:10048000DEB769837A838B839C8389819A81AB8170
:10049000BC8180934A0190934B01A0934C01B0938F
:1004A0004D0180914A0190914B01A0914C01B09176
:1004B0004D018093540190935501A0935601B09340
:1004C000570100000F900F900F900F90DF91CF9188
:1004D00008950F931F93CF93DF9300D000D0CDB733
:1004E000DEB769837A838B839C83809158019091D6
:1004F0005901A0915A01B0915B019C01AD01698144
:100500007A818B819C810E942A04882309F477C018
:1005100020E030E0A90169817A818B819C810E9471
:100520002A04882351F481E990E021E930E0F901BF
:1005300020812870FC01208309C081E990E021E935
:1005400030E0F90120812360FC01208328E539E3B4
:1005500044E75FE369817A818B819C810E942A0450
:10056000882344F488E990E02FEF3FEFFC013183CA
:10057000208334C020E034E244EF56E469817A817C
:100580008B819C810E944C05181634F488E990E018
:10059000FC011182108222C008E910E020E030E066
:1005A00040E053E469817A818B819C810E945105EE
:1005B000DC01CB019C01AD0160E074E284EF9AE4C0
:1005C0000E942F04DC01CB01BC01CD010E94A104DB
:1005D000DC01CB010197F8019183808384E990E0ED
:1005E000FC011182108289819A81AB81BC81809348
:1005F000580190935901A0935A01B0935B010000F8
:100600000F900F900F900F90DF91CF911F910F914E
:100610000895CF93DF93CDB7DEB780E990E020E473
:10062000FC01208381E990E02BE0FC01208360E065
:1006300070E0CB010E9469020000DF91CF91089524
:10064000CF93DF93CDB7DEB780E990E0FC01108255
:1006500081E990E0FC0110820000DF91CF910895C4
:10066000CF93DF931F92CDB7DEB780E290E0FC011D
:10067000808180958770898380915C0190915D0174
:100680008230910581F18330910528F4009759F06B
:10069000019781F0A4C08330910509F468C00497E4
:1006A00009F48CC09CC081E090E090935D01809340
:1006B0005C019DC01092520110924E0110924F01A8
:1006C000109250018981813039F482E090E090935A
:1006D0005D0180935C018BC081E090E090935D01AF
:1006E00080935C0184C080914E01882F90E0825CF1
:1006F0009E4FFC019081809150019817F8F08091F5
:100700005201882F90E0880F991F880F991F825FF0
:100710009E4FFC0180819181A281B381BC01CD01FA
:100720000E946902809150018F5F8093500182E0A6
:1007300090E090935D0180935C0156C080914E01E2
:10074000882F90E0825C9E4FFC0190818091500147
:10075000981708F049C080914F018F5F80934F0137
:1007600083E090E090935D0180935C013DC08091B7
:100770004F018C3098F410925001809152018F5F9C
:100780008093520180914E018F5F80934E0182E0F1
:1007900090E090935D0180935C0128C080914F01AF
:1007A0008C3021F584E090E090935D0180935C01B2
:1007B00060E070E0CB010E94690218C0898181303D
:1007C00039F484E090E090935D0180935C010FC068
:1007D00081E090E090935D0180935C0108C01092ED
:1007E0005D0110925C0103C0000001C00000000028
:1007F0000F90DF91CF910895CF93DF93CDB7DEB700
:1008000081E290E0FC01108282E290E02FEFFC0197
:10081000208384E290E02FEFFC01208385E290E0CA
:10082000FC01108264E670E080E090E00E943B02F0
:100830000E948B010E94090310925D0110925C01DD
:100840000E9430030000809151018823E1F310924F
:100850005101F6CF0E94D70408F481E008950E9468
:1008600043040C9412050E940B0558F00E940405E5
:1008700040F029F45F3F29F00C94FB0451110C94D3
:1008800046050C9401050E94230568F39923B1F3F2
:10089000552391F3951B550BBB27AA2762177307A6
:1008A000840738F09F5F5F4F220F331F441FAA1F3A
:1008B000A9F335D00E2E3AF0E0E832D091505040F6
:1008C000E695001CCAF72BD0FE2F29D0660F771FA4
:1008D000881FBB1F261737074807AB07B0E809F08A
:1008E000BB0B802DBF01FF2793585F4F3AF09E3F0F
:1008F000510578F00C94FB040C9446055F3FE4F33B
:10090000983ED4F3869577956795B795F7959F5F51
:10091000C9F7880F911D9695879597F90895E1E09D
:10092000660F771F881FBB1F621773078407BA07FC
:1009300020F0621B730B840BBA0BEE1F88F7E09557
:1009400008950E94A8046894B1110C944605089576
:100950000E942B0588F09F5798F0B92F9927B7511F
:10096000B0F0E1F0660F771F881F991F1AF0BA9553
:10097000C9F714C0B13091F00E944505B1E0089567
:100980000C944505672F782F8827B85F39F0B93F59
:10099000CCF3869577956795B395D9F73EF4909506
:1009A0008095709561957F4F8F4F9F4F0895990F58
:1009B0000008550FAA0BE0E8FEEF16161706E80729
:1009C000F907C0F012161306E407F50798F0621B4A
:1009D000730B840B950B39F40A2661F0232B242B1F
:1009E000252B21F408950A2609F4A140A6958FEF3E
:1009F000811D811D089597F99F6780E870E060E090
:100A000008959FEF80EC089500240A9416161706A7
:100A100018060906089500240A94121613061406EF
:100A200005060895092E0394000C11F4882352F052
:100A3000BB0F40F4BF2B11F460FF04C06F5F7F4F0A
:100A40008F4F9F4F089557FD9058440F551F59F0F1
:100A50005F3F71F04795880F97FB991F61F09F3FAB
:100A600079F087950895121613061406551FF2CFD4
:100A70004695F1DF08C0161617061806991FF1CF24
:100A800086957105610508940895E894BB2766274B
:100A90007727CB0197F908950E94D70408F48FEFC8
:100AA00008950E9464050C9412050E94040538F014
:100AB0000E940B0520F0952311F00C94FB040C947C
:100AC000010511240C9446050E94230570F3959F9F
:100AD000C1F3950F50E0551F629FF001729FBB2735
:100AE000F00DB11D639FAA27F00DB11DAA1F649FD1
:100AF0006627B00DA11D661F829F2227B00DA11D84
:100B0000621F739FB00DA11D621F839FA00D611D09
:100B1000221F749F3327A00D611D231F849F600D2A
:100B2000211D822F762F6A2F11249F5750409AF053
:100B3000F1F088234AF0EE0FFF1FBB1F661F771FDF
:100B4000881F91505040A9F79E3F510580F00C94AA
:100B5000FB040C9446055F3FE4F3983ED4F386957E
:100B600077956795B795F795E7959F5FC1F7FE2B4A
:100B7000880F911D9695879597F90895F894FFCF62
:100B80000000000200000000620100000000A4D08C
:100B900082437BD49243A4D0A443A4D082437BD489
:100BA0009243A4D0824300D002440000C4437BD4CB
:100BB0009243719DAE430000DC430000C443030335
:0E0BC0000803030303050303080501000000FA
:00000001FF
